{
  "contractName": "ProofOfExistence3",
  "abi": [
    {
      "inputs": [
        {
          "internalType": "string",
          "name": "document",
          "type": "string"
        }
      ],
      "name": "notarize",
      "outputs": [],
      "stateMutability": "nonpayable",
      "type": "function"
    },
    {
      "inputs": [
        {
          "internalType": "string",
          "name": "document",
          "type": "string"
        }
      ],
      "name": "proofFor",
      "outputs": [
        {
          "internalType": "bytes32",
          "name": "",
          "type": "bytes32"
        }
      ],
      "stateMutability": "pure",
      "type": "function",
      "constant": true
    },
    {
      "inputs": [
        {
          "internalType": "string",
          "name": "document",
          "type": "string"
        }
      ],
      "name": "checkDocument",
      "outputs": [
        {
          "internalType": "bool",
          "name": "",
          "type": "bool"
        }
      ],
      "stateMutability": "view",
      "type": "function",
      "constant": true
    }
  ],
  "bytecode": "0x608060405234801561001057600080fd5b5061037b806100206000396000f3fe608060405234801561001057600080fd5b50600436106100415760003560e01c806353fb9233146100465780637183616c14610117578063f6c1acdf14610190575b600080fd5b6100ff6004803603602081101561005c57600080fd5b810190808035906020019064010000000081111561007957600080fd5b82018360208201111561008b57600080fd5b803590602001918460018302840111640100000000831117156100ad57600080fd5b91908080601f016020809104026020016040519081016040528093929190818152602001838380828437600081840152601f19601f82011690508083019250505050505050919291929050505061025f565b60405180821515815260200191505060405180910390f35b61018e6004803603602081101561012d57600080fd5b810190808035906020019064010000000081111561014a57600080fd5b82018360208201111561015c57600080fd5b8035906020019184600183028401116401000000008311171561017e57600080fd5b909192939192939050505061027e565b005b610249600480360360208110156101a657600080fd5b81019080803590602001906401000000008111156101c357600080fd5b8201836020820111156101d557600080fd5b803590602001918460018302840111640100000000831117156101f757600080fd5b91908080601f016020809104026020016040519081016040528093929190818152602001838380828437600081840152601f19601f8201169050808301925050505050505091929192905050506102dd565b6040518082815260200191505060405180910390f35b60008061026b836102dd565b9050610276816102ee565b915050919050565b60006102cd83838080601f016020809104026020016040519081016040528093929190818152602001838380828437600081840152601f19601f820116905080830192505050505050506102dd565b90506102d881610317565b505050565b600081805190602001209050919050565b600080600083815260200190815260200160002060009054906101000a900460ff169050919050565b600160008083815260200190815260200160002060006101000a81548160ff0219169083151502179055505056fea2646970667358221220fe3b17440dfd5c358ed1763459b0a85e50202928ea85ed99a63273f0b2d363c564736f6c63430007000033",
  "immutableReferences": {},
  "source": "//SPDX-License-Identifier: MIT\n\npragma solidity ^0.7.0;\n\ncontract ProofOfExistence3 {\n\n  mapping (bytes32 => bool) private proofs;\n  \n  // store a proof of existence in the contract state\n  function storeProof(bytes32 proof) \n    internal \n  {\n    proofs[proof] = true;\n  }\n  \n  // calculate and store the proof for a document\n  function notarize(string calldata document) \n    external \n  { \n    bytes32 proof = proofFor(document);\n    storeProof(proof);\n  }\n  \n  // helper function to get a document's sha256\n  function proofFor(string memory document) \n    pure \n    public \n    returns (bytes32) \n  {\n    return keccak256(bytes(document));\n  }\n  \n  // check if a document has been notarized\n  function checkDocument(string memory document) \n    public \n    view \n    returns (bool) \n  {\n    bytes32 proof = proofFor(document);\n    return hasProof(proof);\n  }\n\n  // returns true if proof is stored\n  function hasProof(bytes32 proof) \n    internal \n    view \n    returns(bool) \n  {\n    return proofs[proof];\n  }\n}",
  "sourcePath": "/Users/ashton/Programming/consensys-bootcamp/hitchhiker/contracts/ProofOfExistence3.sol",
  "compiler": {
    "name": "solc",
    "version": "0.7.0+commit.9e61f92b.Emscripten.clang"
  },
  "schemaVersion": "3.2.4",
  "updatedAt": "2020-09-10T11:40:34.521Z",
  "networkType": "ethereum",
  "devdoc": {
    "kind": "dev",
    "methods": {},
    "version": 1
  },
  "userdoc": {
    "kind": "user",
    "methods": {},
    "version": 1
  }
}